:400000000010002011000000210400002104000010B500F00DFAC04670B50F4C23688022D20213432360182000F086FA22680B4B134023600A4A0B4B1A60063A0A4B1A6088
:40004000002525600949092000F042FA092000F033FA074B1D6070BD00010B40FFFFFBFF0600008004010B4008010B40490700000C020B4010B572B600240FE0204862000C
:40008000131959000B00411889881A5AC31858880004104300F0BEF90134E4B2012CEDD9EE221202174B1A6099231B04164A1360164A1360164A1360164A1360164A11784B
:4000C00006230B43DBB213706D22144B1A60144A144B1A601522144B1A60144A144B1A60144A154B1A60D8221201144B1A600B22134B1A60134A144B1A60FFF78DFF10BDEB
:400100001C0C00000C00014000500F4010500F4020500F4030500F4000700F400000044082050B0008000440000104408261000008010440B66D1B0008020440080304403D
:4001400000040440160C00000804044010B5064C2378002B07D1054B002B02D0044800E000BF0123237010BD4001002000000000AC0B0000084B10B5002B03D00749084886
:4001800000E000BF07480368002B00D110BD064B002BFBD09847F9E70000000044010020AC0B0000C00000200000000010B562B600F088FC0021002000F094FC134800F0BE
:4001C00027FC0021012000F08DFC114800F020FC002000F00BFB002000F01CFB002000F02DFB002000F03EFB002000F057FB002000F060FB00F00EF800F048FB0028F9D116
:40020000013000F013FC00F0BFF8F3E7B00B0000C00B000010B500F0F5FA002824D1594B1B68002B20D1013000F0E0FA0122554B1A60002411E000F029FB002802D1002205
:40024000504B1A604F4B1B68002B05D0012000F025FB012000F04EF901349023FF339C42E9DD002000F01AFB00F0E0FA002824D1444B1B68002B20D1013000F0CBFA0122C2
:40028000404B1A60002411E000F000FB002802D100223C4B1A603B4B1B68002B05D0012000F0FCFA012000F025F901349023FF339C42E9DD002000F0F1FA00F0CBFA002846
:4002C00024D1304B1B68002B20D1013000F0B6FA01222C4B1A60002411E000F0D7FA002802D10022274B1A60264B1B68002B05D0012000F0DFFA012000F0FCF80134902360
:40030000FF339C42E9DD002000F0D4FA00F0B6FA002824D11B4B1B68002B20D1013000F0A1FA0122174B1A60002411E000F0AEFA002802D10022134B1A60124B1B68002BDF
:4003400005D0012000F0B6FA012000F0D3F801349023FF339C42E9DD002000F0ABFA00F095FA00280DD100F041FA002000F052FA002000F063FA002000F074FA0022014B33
:400380001A6010BD5C01002010B5012000F04EFB1B4800F03DFB01E0FFF73CFF00F032FA0028F9D1013000F041FB164800F030FB01E0FFF72FFF00F039FA0028F9D101308E
:4003C00000F034FB104800F023FB01E0FFF722FF00F040FA0028F9D1013000F027FB0B4800F016FB01E0FFF715FF00F047FA0028F9D1013000F01AFB054800F009FB10BD7B
:40040000CC0B0000DC0B0000EC0B0000FC0B00000C0C000010B50A00002100F0BFFB10BD10B500F08FFB03680C2B00D1FEE7FEE770B50F4E0F4D13E029686B68AC6800229A
:4004400002E001C901C30432A242FAD1E868002202E0002102C304328242FAD11035013E002EE9D100F074FBFFF7A0FEFEE7C046010000007C0C000010B500230AE0032B55
:4004800003D89A000949505800E009489900094A885001332F2BF2D9FFF7ECFD8022D205116801230B43136010BDC0460000000021040000000000201F2318401E3B8340FB
:4004C000014A13607047C04600E100E001BE704770B504000D001F2802D90020FFF7F6FF1034A40080239B059C4664442068256070BDC04610B5040006E0084B586800F040
:400500000FFB074B9C46644480231B029C42F4D8024B9868604300F003FB10BDC40000200080FFFF10B5034B1B7B584300F0F8FA10BDC046C4000020F0B557464E46C0B437
:4005400083B0040000F0F6FA0190E71E2D2F74D83F4B1B78DBB29C4208D83E4B1B78DBB29A463D4B1B78DBB2994631E03B4B1B78DBB29C4208D83A4B1B78DBB29A46394B30
:400580001B78DBB2994623E0374B1B78DBB29C4208D8364B1B78DBB29A46354B1B78DBB2994615E0334B1B78DBB29C4208D8324B1B78DBB29A46314B1B78DBB2994607E0A9
:4005C0002F4B1B78DBB29A462E4B1B78DBB299462D4BDE5D2F2E09D92A2C07D919222B4B1A60052000F09CFA192503E0274B1D683F231D40B54206D9234BDA5D234B1A60D1
:40060000052000F08DFA1F4B9C4664442378DBB21F4A13601F4B52461A601F4B4A461A600520FFF77FFFB5420AD2174BDA5D174B1A60052000F074FA02E00020FFF746FF95
:40064000019800F07BFA03B00CBC91469A46F0BDC0F1FF0FC1F1FF0FC2F1FF0FC3F1FF0FC4F1FF0FC5F1FF0FC6F1FF0FC7F1FF0FC8F1FF0FC9F1FF0FCAF1FF0FCBF1FF0F67
:40068000CCF1FF0FCDF1FF0F280C00002CFF0B4028FF0B401CFF0B4020FF0B40034B1868C0231B02184000D00120704700010B4010B500F03FFA044A1368C02109020B43AC
:4006C000136000F03BFA10BD00010B4010B500F031FA08490A68084B1A408024E40122430A600A6813408022120213430B6000F025FA10BD00010B40FF3FFFFF70B50500D7
:4007000000F018FA0400FFF7C9FF002803D0FFF7DDFF012100E0002108482840084A1568084B2B40184310601368012901D1FFF7BFFF200000F002FA70BDC046040404007F
:4007400010020B40FBFBFBFF10B5244B1B685B0715D5234B1B685B070ED5224BD969042001401F4C22688A432260DA698243DA611B69002B00D098470420FFF7BFFF174BC0
:400780001B685B0518D5164B1B685B0510D5154BD9698022D2001140114802688A430260D969114A0A40DA615B69002B00D098478020C000FFF7A2FF084B1B685B030CD51B
:4007C000074B1B685B0304D5064B9B69002B00D098478020C002FFF791FF10BD10020B40D800002060010020FFFBFFFF044A1368DBB201218B430840184310607047C04625
:4008000000040440024B186840080123184070470404044004490A68D2B208239A43C000184010430860704700040440024B1B68012018407047C0460400044004490A68B2
:40084000D2B204239A438000184010430860704700000440024B1868C0080123184070470400044004490A68D2B220239A434001184010430860704700000440024B1868D3
:40088000800901231840704704000440024B1B68012018407047C0460401044004490A68D2B204239A43800018401043086070470001044004490A68D2B210239A430001BB
:4008C00018401043086070470001044010B50B4C226860239A4322602268513B9A432260226810230343D8B2104320600120FFF719FE236810229343236010BD0002044035
:4009000070B505000E4C226820231343236023684022934323600020FFF704FE23680F2293432360226810232B43D8B2104320600120FFF7F7FD236810229343236070BD44
:4009400000020440F8B5274A13687F218B43136025490B681B0B1B03244803430B60136820218B431360116840230B431360CA277F000020FFF7D6FD1A4C236810263343E5
:4009800023600120FFF7CEFD194B1D682368B34323600020FFF7C6FD08231D402368334323600120FFF7BEFD2368B3432360002D02D10A20FFF7B6FD013F002D01D0002FEA
:4009C000D7D1084B1A6840218A431A601A683F318A431A60044A13681B0B1B0305490B431360F8BD00020440080204404902000004020440B60D000010B50400FFF7A2FF7C
:400A00002009FFF77DFF0F202040FFF779FF10BD70B505000078012404E0FFF7EDFF285D0134E4B20028F8D170BDC04610B50400FFF788FF2009FFF749FF0F202040FFF71E
:400A400045FF10BD10B52820FFF754FD0320FFF73DFF0520FFF74EFD0320FFF737FF0F20FFF748FD0320FFF731FF0120FFF742FD0220FFF72BFF0520FFF73CFD0620FFF74C
:400A8000D5FF0E20FFF7D2FF2C20FFF7CFFF0820FFF7CCFF0120FFF7C9FF0C20FFF7C6FF0320FFF7C3FF0520FFF724FD10BDC04610B50C20FFF7BAFF0122014B1A7010BD5E
:400AC0008001002010B5064B5B78002B04D1FFF7B9FF0122024B5A70FFF7EAFF10BDC0468001002010B501280BD0002804D002280CD003280FD012E08039C8B2FFF796FFAC
:400B00000DE04039C8B2FFF791FF08E06C39C8B2FFF78CFF03E02C39C8B2FFF787FF10BD0230800804D0C0460138FDD1C046C046C0467047EFF3108072B6704780F31088FC
:400B40007047C046014B18687047C0463C0100200E4B70B500251E000D4CE41AA410A54204D0AB00F35898470135F8E700F074F8084B00251E00084CE41AA410A54204D0AE
:400B8000AB00F35898470135F8E770BD640C0000640C0000640C00006C0C000003008218934202D019700133FAE7704700000000536369656E636520426F776C210000002E
:400BC000507265737320526573657400546573742042757A7A65722031000000546573742042757A7A65722032000000546573742042757A7A657220330000005465737469
:400C00002042757A7A6572203400000042757A7A65727320546573746564000000300F40000400400F400004030405060708090A0B0C0E0F101112131415161718191B1CBE
:400C40001D1E1F2021222325262728292A2B2E2F3031323334354300F8B5C046F8BC08BC9E4670477501000079040000F8B5C046F8BC08BC9E4670474D010000900C000044
:400C8000C000002080000000480000000000000000000000010000000000E02EC05D00001800000000366E0104040400000000000000000000000000000000000000000097
:400CC000000000000000000000000000560C000000000000000000000000000000000000000000000000000000000000000000000000000000000000000000000000000092
:400D0000000000000000000000000000DC000020000000000000000000000000000000000000000000000000000000000000000000000000000000000000000000000000B7
:400D40000000000000000000000000000000000000000000000000000000000000000000000000000000000000000000000000000000000000000000000000000000000073
:400D80000000000000000000000000000000000000000000000000000000000000000000000000000000000000000000000000000000000000000000000000000000000033
:400DC00000000000000000000000000000000000000000000000000000000000000000000000000000000000000000000000000000000000000000000000000000000000F3
:400E000000000000000000000000000000000000000000000000000000000000000000000000000000000000000000000000000000000000000000000000000000000000B2
:0200000490303A
:020000006A6E26
:0200000490402A
:200000000000000000000000000000000000000000000000000000000000000000000000E0
:0200000490501A
:0C000000000204C81193110104CC7C0123
:0200000490600A
:0100000001FE
:00000001FF