:400000000010002011000000DD040000DD04000010B500F06BFAC04670B50F4C23688022D20213432360182000F0E4FA22680B4B134023600A4A0B4B1A60063A0A4B1A6054
:40004000002525600949092000F0A0FA092000F091FA074B1D6070BD00010B40FFFFFBFF0600008004010B4008010B40050800000C020B4010B572B600240FE02048620093
:40008000131959000B00411889881A5AC31858880004104300F01CFA0134E4B2012CEDD9EE221202174B1A6099231B04164A1360164A1360164A1360164A1360164A1178EC
:4000C00006230B43DBB213706D22144B1A60144A144B1A601522144B1A60144A144B1A60144A154B1A60D8221201144B1A600B22134B1A60134A144B1A60FFF78DFF10BDEB
:400100001C0D00000C00014000500F4010500F4020500F4030500F4000700F400000044082050B0008000440000104408261000008010440B66D1B0008020440080304403C
:4001400000040440160C00000804044010B5064C2378002B07D1054B002B02D0044800E000BF0123237010BD40010020000000006C0C0000084B10B5002B03D007490848C5
:4001800000E000BF07480368002B00D110BD064B002BFBD09847F9E700000000440100206C0C0000C00000200000000010B562B600F0E6FC0021002000F0F2FC154800F03F
:4001C00085FC0021012000F0EBFC134800F07EFC002000F069FB002000F07AFB002000F08BFB002000F09CFB002000F0B5FB002000F0BEFB00F0A8FB0028FBD100F0FCF876
:40020000012000F071FC054800F060FC002000F007F8FBE7700C0000800C00008C0C000010B5040000F04CFB00282CD16D4B1B68002B28D1013000F057FC6B4800F046FC39
:40024000012000F031FB0122664B1A60002411E000F07AFB002802D10022624B1A60614B1B68002B05D0012000F076FB012000F09FF901349023FF339C42E9DD002000F00D
:400280006BFB0120ADE000F02FFB00282CD1554B1B68002B28D1013000F026FC534800F015FC012000F014FB01224E4B1A60002411E000F049FB002802D10022494B1A60FB
:4002C000484B1B68002B05D0012000F045FB012000F06EF901349023FF339C42E9DD002000F03AFB02207CE000F012FB00282CD13C4B1B68002B28D1013000F0F5FB3C48B9
:4003000000F0E4FB012000F0F7FA0122354B1A60002411E000F018FB002802D10022314B1A60304B1B68002B05D0012000F020FB012000F03DF901349023FF339C42E9DD75
:40034000002000F015FB03204BE000F0F5FA00282CD1244B1B68002B28D1013000F0C4FB244800F0B3FB012000F0DAFA01221D4B1A60002411E000F0E7FA002802D100221E
:40038000184B1A60174B1B68002B05D0012000F0EFFA012000F00CF901349023FF339C42E9DD002000F0E4FA04201AE000F0CCFA002815D1002C02D1013000F095FB00200D
:4003C00000F072FA002000F083FA002000F094FA002000F0A5FA0022024B1A60092000E0002010BD5C0100209C0C0000AC0C0000BC0C0000CC0C000010B5012000F074FB26
:400400002F4800F063FB0120FFF70AFF0AE0012805D9012000F068FB294800F057FB0120FFF7FEFE0128F2D100F05EFB254800F04DFB0120FFF7F4FE0CE0002807D00228B4
:4004400005D0012000F050FB1E4800F03FFB0120FFF7E6FE0228F0D1013800F045FB1A4800F034FB0120FFF7DBFE0CE0002807D0032805D0012000F037FB134800F026FB61
:400480000120FFF7CDFE0328F0D1023800F02CFB0E4800F01BFB0120FFF7C2FE0CE0002807D0042805D0012000F01EFB074800F00DFB0120FFF7B4FE0428F0D110BDC04604
:4004C000DC0C0000EC0C0000FC0C00000C0D000010B50A00002100F0C1FB10BD10B500F091FB03680C2B00D1FEE7FEE770B50F4E0F4D13E029686B68AC68002202E001C9FD
:4005000001C30432A242FAD1E868002202E0002102C304328242FAD11035013E002EE9D100F076FBFFF742FEFEE7C046010000007C0D000010B500230AE0032B03D89A0026
:400540000949505800E009489900094A885001332F2BF2D9FFF78EFD8022D205116801230B43136010BDC04600000000DD040000000000201F2318401E3B8340014A136093
:400580007047C04600E100E001BE704770B504000D001F2802D90020FFF7F6FF1034A40080239B059C4664442068256070BDC04610B5040006E0084B586800F011FB074BDF
:4005C0009C46644480231B029C42F4D8024B9868604300F005FB10BDC40000200080FFFF10B5034B1B7B584300F0FAFA10BDC046C4000020F0B557464E46C0B483B0040098
:4006000000F0F8FA0190E71E2D2F74D83F4B1B78DBB29C4208D83E4B1B78DBB29A463D4B1B78DBB2994631E03B4B1B78DBB29C4208D83A4B1B78DBB29A46394B1B78DBB284
:40064000994623E0374B1B78DBB29C4208D8364B1B78DBB29A46354B1B78DBB2994615E0334B1B78DBB29C4208D8324B1B78DBB29A46314B1B78DBB2994607E02F4B1B78FB
:40068000DBB29A462E4B1B78DBB299462D4BDE5D2F2E09D92A2C07D919222B4B1A60052000F09EFA192503E0274B1D683F231D40B54206D9234BDA5D234B1A60052000F006
:4006C0008FFA1F4B9C4664442378DBB21F4A13601F4B52461A601F4B4A461A600520FFF77FFFB5420AD2174BDA5D174B1A60052000F076FA02E00020FFF746FF019800F05D
:400700007DFA03B00CBC91469A46F0BDC0F1FF0FC1F1FF0FC2F1FF0FC3F1FF0FC4F1FF0FC5F1FF0FC6F1FF0FC7F1FF0FC8F1FF0FC9F1FF0FCAF1FF0FCBF1FF0FCCF1FF0F62
:40074000CDF1FF0F280D00002CFF0B4028FF0B401CFF0B4020FF0B40034B1868C0231B02184000D00120704700010B4010B500F041FA044A1368C02109020B43136000F050
:400780003DFA10BD00010B4010B500F033FA08490A68084B1A408024E40122430A600A6813408022120213430B6000F027FA10BD00010B40FF3FFFFF70B5050000F01AFA6F
:4007C0000400FFF7C9FF002803D0FFF7DDFF012100E0002108482840084A1568084B2B40184310601368012901D1FFF7BFFF200000F004FA70BDC0460404040010020B4062
:40080000FBFBFBFF10B5244B1B685B0715D5234B1B685B070ED5224BD969042001401F4C22688A432260DA698243DA611B69002B00D098470420FFF7BFFF174B1B685B0579
:4008400018D5164B1B685B0510D5154BD9698022D2001140114802688A430260D969114A0A40DA615B69002B00D098478020C000FFF7A2FF084B1B685B030CD5074B1B6868
:400880005B0304D5064B9B69002B00D098478020C002FFF791FF10BD10020B40D800002060010020FFFBFFFF044A1368DBB201218B430840184310607047C04600040440F1
:4008C000024B186840080123184070470404044004490A68D2B208239A43C000184010430860704700040440024B1B68012018407047C0460400044004490A68D2B204238F
:400900009A438000184010430860704700000440024B1868C0080123184070470400044004490A68D2B220239A434001184010430860704700000440024B18688009012310
:400940001840704704000440024B1B68012018407047C0460401044004490A68D2B204239A43800018401043086070470001044004490A68D2B210239A43000118401043FC
:40098000086070470001044010B50B4C226860239A4322602268513B9A432260226810230343D8B2104320600120FFF719FE236810229343236010BD0002044070B50500F5
:4009C0000E4C226820231343236023684022934323600020FFF704FE23680F2293432360226810232B43D8B2104320600120FFF7F7FD236810229343236070BD0002044068
:400A0000F8B5274A13687F218B43136025490B681B0B1B03244803430B60136820218B431360116840230B431360CA277F000020FFF7D6FD1A4C23681026334323600120C6
:400A4000FFF7CEFD194B1D682368B34323600020FFF7C6FD08231D402368334323600120FFF7BEFD2368B3432360002D02D10A20FFF7B6FD013F002D01D0002FD7D1084BD2
:400A80001A6840218A431A601A683F318A431A60044A13681B0B1B0305490B431360F8BD00020440080204404902000004020440B60D000010B50400FFF7A2FF2009FFF797
:400AC0007DFF0F202040FFF779FF10BD70B505000078012404E0FFF7EDFF285D0134E4B20028F8D170BDC04610B50400FFF788FF2009FFF749FF0F202040FFF745FF10BD6C
:400B000010B52820FFF754FD0320FFF73DFF0520FFF74EFD0320FFF737FF0F20FFF748FD0320FFF731FF0120FFF742FD0220FFF72BFF0520FFF73CFD0620FFF7D5FF0E209A
:400B4000FFF7D2FF2C20FFF7CFFF0820FFF7CCFF0120FFF7C9FF0C20FFF7C6FF0320FFF7C3FF0520FFF724FD10BDC04610B50C20FFF7BAFF0122014B1A7010BD80010020FE
:400B800010B5064B5B78002B04D1FFF7B9FF0122024B5A70FFF7EAFF10BDC0468001002010B501280BD0002804D002280CD003280FD012E08039C8B2FFF796FF0DE0403926
:400BC000C8B2FFF791FF08E06C39C8B2FFF78CFF03E02C39C8B2FFF787FF10BD000000000230800804D0C0460138FDD1C046C046C0467047EFF3108072B6704780F31088A2
:400C00007047C046014B18687047C0463C0100200E4B70B500251E000D4CE41AA410A54204D0AB00F35898470135F8E700F094F8084B00251E00084CE41AA410A54204D0CD
:400C4000AB00F35898470135F8E770BD640D0000640D0000640D00006C0D000003008218934202D019700133FAE7704700000000536369656E636520426F776C2100000069
:400C8000507265737320526573657400526561647920746F20706C6179000000506C6179657220312042757A7A656400506C6179657220322042757A7A656400506C6179FB
:400CC000657220332042757A7A656400506C6179657220342042757A7A656400546573742042757A7A65722031000000546573742042757A7A65722032000000546573741A
:400D00002042757A7A65722033000000546573742042757A7A6572203400000000300F40000400400F400004030405060708090A0B0C0E0F101112131415161718191B1CA6
:400D40001D1E1F2021222325262728292A2B2E2F3031323334354300F8B5C046F8BC08BC9E4670477501000035050000F8B5C046F8BC08BC9E4670474D010000900D000085
:400D8000C000002080000000480000000000000000000000010000000000E02EC05D00001800000000366E0104040400000000000000000000000000000000000000000096
:400DC000000000000000000000000000560D000000000000000000000000000000000000000000000000000000000000000000000000000000000000000000000000000090
:400E0000000000000000000000000000DC000020000000000000000000000000000000000000000000000000000000000000000000000000000000000000000000000000B6
:400E40000000000000000000000000000000000000000000000000000000000000000000000000000000000000000000000000000000000000000000000000000000000072
:400E80000000000000000000000000000000000000000000000000000000000000000000000000000000000000000000000000000000000000000000000000000000000032
:400EC00000000000000000000000000000000000000000000000000000000000000000000000000000000000000000000000000000000000000000000000000000000000F2
:400F000000000000000000000000000000000000000000000000000000000000000000000000000000000000000000000000000000000000000000000000000000000000B1
:0200000490303A
:02000000C950E5
:0200000490402A
:200000000000000000000000000000000000000000000000000000000000000000000000E0
:0200000490501A
:0C000000000204C81193110104CCDAE3E3
:0200000490600A
:0100000001FE
:00000001FF