:400000000010002011000000490800004908000010B500F021FCC04670B50F4C23688022D20213432360182000F09AFC22680B4B134023600A4A0B4B1A60063A0A4B1A6004
:40004000002525600949092000F056FC092000F047FC074B1D6070BD00010B40FFFFFBFF0600008004010B4008010B40710B00000C020B4010B572B600240FE020486200B4
:40008000131959000B00411889881A5AC31858880004104300F0D2FB0134E4B2012CEDD9EE221202174B1A6099231B04164A1360164A1360164A1360164A1360164A117835
:4000C00006230B43DBB21370FF22144B1A60144A144B1A60BF22144B1A60144A144B1A60144A154B1A60D8221201144B1A600F22134B1A60134A144B1A60FFF78DFF10BDAB
:40010000C41100000C00014000500F4010500F4020500F4030500F4000700F40000004409665590008000440000104409665C10008010440B66D1B000802044008030440F5
:4001400000040440960500000804044010B5064C2378002B07D1054B002B02D0044800E000BF0123237010BD400100200000000074100000084B10B5002B03D00749084840
:4001800000E000BF07480368002B00D110BD064B002BFBD09847F9E7000000004401002074100000C00000200000000010B562B600F09CFE0021002000F0A8FE1B4800F0BD
:4001C0003BFE0021012000F0A1FE194800F034FE002000F01FFD002000F030FD002000F041FD002000F052FD002000F0ADFE002000F0BEFE002000F0CFFE002000F0E0FE0A
:40020000002000F05FFD002000F068FD00F052FD0028FBD100F03AFA012000F01BFE054800F00AFE002000F007F8FBE778100000881000009410000010B5040000F0F6FCB7
:40024000002837D1CF4B1B68002B33D1013000F001FE0521002000F059FECB4800F0ECFD0021012000F052FEC84800F0E5FD012000F0D0FC0122C34B1A60002411E000F0F8
:4002800019FD002802D10022BE4B1A60BD4B1B68002B05D0012000F015FD012000F03EFB01349023FF339C42E9DD002000F00AFD0120E1E100F0CEFC002837D1B14B1B686F
:4002C000002B33D1013000F0C5FD0521002000F01DFEAD4800F0B0FD0021012000F016FEAB4800F0A9FD012000F0A8FC0122A54B1A60002411E000F0DDFC002802D10022FD
:40030000A04B1A609F4B1B68002B05D0012000F0D9FC012000F002FB01349023FF339C42E9DD002000F0CEFC0220A5E100F0A6FC002837D1934B1B68002B33D1013000F044
:4003400089FD0521002000F0E1FD8F4800F074FD0021012000F0DAFD8E4800F06DFD012000F080FC0122874B1A60002411E000F0A1FC002802D10022824B1A60814B1B6821
:40038000002B05D0012000F09DFC012000F0C6FA01349023FF339C42E9DD002000F092FC032069E100F07EFC002837D1754B1B68002B33D1013000F04DFD0521002000F04C
:4003C000A5FD714800F038FD0021012000F09EFD714800F031FD012000F058FC0122694B1A60002411E000F065FC002802D10022644B1A60634B1B68002B05D0012000F035
:4004000061FC012000F08AFA01349023FF339C42E9DD002000F056FC04202DE100F0A0FD002837D1574B1B68002B33D1013000F011FD0521002000F069FD584800F0FCFC14
:400440000021012000F062FD554800F0F5FC012000F07AFD01224B4B1A60002411E000F029FC002802D10022464B1A60454B1B68002B05D0012000F031FC012000F04EFAB6
:4004800001349023FF339C42E9DD002000F026FC0520F1E000F078FD002837D1394B1B68002B33D1013000F0D5FC0521002000F02DFD3A4800F0C0FC0021012000F026FDB6
:4004C000384800F0B9FC012000F052FD01222D4B1A60002411E000F0EDFB002802D10022284B1A60274B1B68002B05D0012000F0F5FB012000F012FA01349023FF339C4260
:40050000E9DD002000F0EAFB0620B5E000F050FD00284BD11B4B1B68002B47D1013000F099FC0521002000F0F1FC1C4800F084FC0021012000F0EAFC1B4800F07DFC0120E6
:4005400000F02AFD01220F4B1A60002411E000F0B1FB002802D100220A4B1A60094B1B68002B05D0012000F0B9FB012000F0D6F901349023FF339C42E9DD002000F0AEFBDD
:40058000072079E05C010020A4100000AC100000BC100000CC100000DC100000EC100000F4100000041100001411000000F014FD002837D1314B1B68002B33D1013000F080
:4005C00049FC0521002000F0A1FC2D4800F034FC0021012000F09AFC2A4800F02DFC012000F0EEFC0122254B1A60002411E000F061FB002802D10022204B1A601F4B1B68A3
:40060000002B05D0012000F069FB012000F086F901349023FF339C42E9DD002000F05EFB082029E000F046FB002824D1002C05D1013000F00FFC144800F0FEFB002000F08C
:40064000E9FA002000F0FAFA002000F00BFB002000F01CFB002000F077FC002000F088FC002000F099FC002000F0AAFC0022034B1A60092000E0002010BDC0465C01002081
:40068000EC100000241100003411000010B5012000F0E0FB614800F0CFFB0120FFF7CCFD0AE0012805D9012000F0D4FB5B4800F0C3FB0120FFF7C0FD0128F2D100F0CAFB39
:4006C000574800F0B9FB0120FFF7B6FD0CE0002807D0022805D0012000F0BCFB504800F0ABFB0120FFF7A8FD0228F0D1013800F0B1FB4C4800F0A0FB0120FFF79DFD0CE0D5
:40070000002807D0032805D0012000F0A3FB454800F092FB0120FFF78FFD0328F0D1023800F098FB404800F087FB0120FFF784FD0CE0002807D0042805D0012000F08AFBA1
:40074000394800F079FB0120FFF776FD0428F0D1033800F07FFB354800F06EFB0120FFF76BFD0CE0002807D0052805D0012000F071FB2E4800F060FB0520FFF75DFD052856
:40078000F0D1043800F066FB294800F055FB0120FFF752FD0CE0002807D0062805D0012000F058FB224800F047FB0120FFF744FD0628F0D1053800F04DFB1E4800F03CFB9D
:4007C0000120FFF739FD0CE0002807D0072805D0012000F03FFB174800F02EFB0120FFF72BFD0728F0D1063800F034FB124800F023FB0120FFF720FD0CE0002807D00828B7
:4008000005D0012000F026FB0B4800F015FB0120FFF712FD0828F0D110BDC046441100005411000064110000741100008411000094110000A4110000B411000010B50A003D
:40084000002100F00FFC10BD10B500F0DFFB03680C2B00D1FEE7FEE770B50F4E0F4D13E029686B68AC68002202E001C901C30432A242FAD1E868002202E0002102C3043293
:400880008242FAD11035013E002EE9D100F0C4FBFFF78CFCFEE7C046010000002412000010B500230AE0032B03D89A000949505800E009489900094A885001332F2BF2D931
:4008C000FFF7D8FB8022D205116801230B43136010BDC0460000000049080000000000201F2318401E3B8340014A13607047C04600E100E001BE704770B504000D001F282F
:4009000002D90020FFF7F6FF1034A40080239B059C4664442068256070BDC04610B5040006E0084B586800F05FFB074B9C46644480231B029C42F4D8024B9868604300F0AA
:4009400053FB10BDC40000200080FFFF10B5034B1B7B584300F048FB10BDC046C4000020F0B557464E46C0B483B0040000F046FB0190E71E2D2F74D83F4B1B78DBB29C4254
:4009800008D83E4B1B78DBB29A463D4B1B78DBB2994631E03B4B1B78DBB29C4208D83A4B1B78DBB29A46394B1B78DBB2994623E0374B1B78DBB29C4208D8364B1B78DBB2C6
:4009C0009A46354B1B78DBB2994615E0334B1B78DBB29C4208D8324B1B78DBB29A46314B1B78DBB2994607E02F4B1B78DBB29A462E4B1B78DBB299462D4BDE5D2F2E09D984
:400A00002A2C07D919222B4B1A60052000F0ECFA192503E0274B1D683F231D40B54206D9234BDA5D234B1A60052000F0DDFA1F4B9C4664442378DBB21F4A13601F4B52463A
:400A40001A601F4B4A461A600520FFF77FFFB5420AD2174BDA5D174B1A60052000F0C4FA02E00020FFF746FF019800F0CBFA03B00CBC91469A46F0BDC0F1FF0FC1F1FF0FEB
:400A8000C2F1FF0FC3F1FF0FC4F1FF0FC5F1FF0FC6F1FF0FC7F1FF0FC8F1FF0FC9F1FF0FCAF1FF0FCBF1FF0FCCF1FF0FCDF1FF0FD01100002CFF0B4028FF0B401CFF0B40B9
:400AC00020FF0B40034B1868C0231B02184000D00120704700010B4010B500F08FFA044A1368C02109020B43136000F08BFA10BD00010B4010B500F081FA08490A68084BEA
:400B00001A408024E40122430A600A6813408022120213430B6000F075FA10BD00010B40FF3FFFFF70B5050000F068FA0400FFF7C9FF002803D0FFF7DDFF012100E00021E5
:400B400008482840084A1568084B2B40184310601368012901D1FFF7BFFF200000F052FA70BDC0460404040010020B40FBFBFBFF10B5244B1B685B0715D5234B1B685B07FC
:400B80000ED5224BD969042001401F4C22688A432260DA698243DA611B69002B00D098470420FFF7BFFF174B1B685B0518D5164B1B685B0510D5154BD9698022D2001140BF
:400BC000114802688A430260D969114A0A40DA615B69002B00D098478020C000FFF7A2FF084B1B685B030CD5074B1B685B0304D5064B9B69002B00D098478020C002FFF7A4
:400C000091FF10BD10020B40D800002060010020FFFBFFFF044A1368DBB201218B430840184310607047C04600040440024B186840080123184070470404044004490A68D8
:400C4000D2B204239A438000184010430860704700040440024B1868C00801231840704704040440044A1368DBB201218B430840184310607047C04600000440024B18681F
:400C800040080123184070470400044004490A68D2B204239A438000184010430860704700000440024B1868C00801231840704704000440024B1868400901231840704743
:400CC0000400044004490A68D2B210239A43000118401043086070470000044004490A68D2B240239A43800118401043086070470000044010B50B4C226860239A432260B0
:400D00002268513B9A432260226810230343D8B2104320600120FFF719FE236810229343236010BD0002044070B505000E4C226820231343236023684022934323600020F7
:400D4000FFF704FE23680F2293432360226810232B43D8B2104320600120FFF7F7FD236810229343236070BD00020440F8B5274A13687F218B43136025490B681B0B1B03AB
:400D8000244803430B60136820218B431360116840230B431360CA277F000020FFF7D6FD1A4C23681026334323600120FFF7CEFD194B1D682368B34323600020FFF7C6FD5B
:400DC00008231D402368334323600120FFF7BEFD2368B3432360002D02D10A20FFF7B6FD013F002D01D0002FD7D1084B1A6840218A431A601A683F318A431A60044A1368AA
:400E00001B0B1B0305490B431360F8BD00020440080204404902000004020440B60D000010B50400FFF7A2FF2009FFF77DFF0F202040FFF779FF10BD70B505000078012432
:400E400004E0FFF7EDFF285D0134E4B20028F8D170BDC04610B50400FFF788FF2009FFF749FF0F202040FFF745FF10BD10B52820FFF754FD0320FFF73DFF0520FFF74EFDE6
:400E80000320FFF737FF0F20FFF748FD0320FFF731FF0120FFF742FD0220FFF72BFF0520FFF73CFD0620FFF7D5FF0E20FFF7D2FF2C20FFF7CFFF0820FFF7CCFF0120FFF74F
:400EC000C9FF0C20FFF7C6FF0320FFF7C3FF0520FFF724FD10BDC04610B50C20FFF7BAFF0122014B1A7010BD8001002010B5064B5B78002B04D1FFF7B9FF0122024B5A7081
:400F0000FFF7EAFF10BDC0468001002010B501280BD0002804D002280CD003280FD012E08039C8B2FFF796FF0DE04039C8B2FFF791FF08E06C39C8B2FFF78CFF03E02C39A3
:400F4000C8B2FFF787FF10BD044A1368DBB201218B430840184310607047C04600010440024B1868C0090123184070470400044004490A68D2B204239A43800018401043D0
:400F80000860704700010440024B186840080123184070470401044004490A68D2B210239A430001184010430860704700010440024B1868C00801231840704704010440C8
:400FC00004490A687F231A40C301D8B2104308607047C04600010440024B18684009012318407047040104400230800804D0C0460138FDD1C046C046C0467047EFF31080C3
:4010000072B6704780F310887047C046014B18687047C0463C0100200E4B70B500251E000D4CE41AA410A54204D0AB00F35898470135F8E700F0E4F8084B00251E00084CFC
:40104000E41AA410A54204D0AB00F35898470135F8E770BD0C1200000C1200000C1200001412000003008218934202D019700133FAE7704700000000536369656E636520F9
:40108000426F776C21000000507265737320526573657400526561647920746F20706C61790000005465616D20410000506C6179657220312042757A7A656400506C6179AD
:4010C000657220322042757A7A656400506C6179657220332042757A7A656400506C6179657220342042757A7A6564005465616D20420000506C6179657220352042757A8E
:401100007A656400506C6179657220362042757A7A656400506C6179657220372042757A7A656400506C6179657220382042757A7A6564004177616974696E6720416E73EE
:4011400077657200546573742042757A7A65722031000000546573742042757A7A65722032000000546573742042757A7A65722033000000546573742042757A7A65722003
:4011800034000000546573742042757A7A65722035000000546573742042757A7A65722036000000546573742042757A7A65722037000000546573742042757A7A657220D1
:4011C0003800000000300F40000400400F400004030405060708090A0B0C0E0F101112131415161718191B1C1D1E1F2021222325262728292A2B2E2F30313233343543006E
:40120000F8B5C046F8BC08BC9E46704775010000A1080000F8B5C046F8BC08BC9E4670474D01000038120000C00000208000000048000000000000000000000001000000C2
:401240000000E02EC05D00001800000000366E01040404000000000000000000000000000000000000000000000000000000000000000000FE11000000000000000000006B
:4012800000000000000000000000000000000000000000000000000000000000000000000000000000000000000000000000000000000000DC000020000000000000000032
:4012C00000000000000000000000000000000000000000000000000000000000000000000000000000000000000000000000000000000000000000000000000000000000EE
:4013000000000000000000000000000000000000000000000000000000000000000000000000000000000000000000000000000000000000000000000000000000000000AD
:40134000000000000000000000000000000000000000000000000000000000000000000000000000000000000000000000000000000000000000000000000000000000006D
:40138000000000000000000000000000000000000000000000000000000000000000000000000000000000000000000000000000000000000000000000000000000000002D
:0200000490303A
:020000007B6B18
:0200000490402A
:200000000000000000000000000000000000000000000000000000000000000000000000E0
:0200000490501A
:0C000000000204C81193110104CE8CFE14
:0200000490600A
:0100000001FE
:00000001FF